S00A000047502E7372656383
S11300000C9432000C944F000C944F000C944F004D
S11300100C944F000C944F000C944F000C944F0020
S11300200C944F000C944F000C944F000C944F0010
S11300300C944F000C944F000C944F000C944F0000
S11300400C9400010C944F000C944F000C944F003E
S11300500C944F00780088009800A800B800C800ED
S1130060D800E80011241FBECFE5D8E0DEBFCDBF25
S113007010E0A0E6B0E0EEE4F8E002C005900D92D6
S1130080A839B107D9F720E0A8E9B0E001C01D9272
S1130090AA39B207E1F70E94BC020C9425040C941F
S11300A0000087B1806487B987B18F7787B986B13B
S11300B0816086B986B1826086B986B1846086B96A
S11300C086B18F7786B986B1877F86B986B180611C
S11300D086B9089586B1806886B9089590E088301D
S11300E0910508F084C0FC01E65DFF4F0C941F04E9
S11300F087B18E7F87B987B18D7F87B987B18B7FB1
S113010087B987B1877F87B987B18F7E87B908950B
S113011087B1816087B987B18D7F87B987B18B7FBC
S113012087B987B1877F87B987B18F7E87B90895EB
S113013087B18E7F87B987B1826087B987B18B7F9A
S113014087B987B1877F87B987B18F7E87B90895CB
S113015087B1816087B987B1826087B987B18B7FA6
S113016087B987B1877F87B987B18F7E87B90895AB
S113017087B18E7F87B987B18D7F87B987B1846056
S113018087B987B1877F87B987B18F7E87B908958B
S113019087B1816087B987B18D7F87B987B1846062
S11301A087B987B1877F87B987B18F7E87B908956B
S11301B087B18E7F87B987B1826087B987B1846040
S11301C087B987B1877F87B987B18F7E87B908954B
S11301D087B1816087B987B1826087B987B184604C
S11301E087B987B1877F87B987B18F7E87B908952B
S11301F086B1806486B9349BFECF84B195B10895ED
S11302001F920F920FB60F9211242F933F934F9387
S11302105F936F937F938F939F93AF93BF93EF936A
S1130220FF93E0919800F09199000995FF91EF9167
S1130230BF91AF919F918F917F916F915F914F91FA
S11302403F912F910F900FBE0F901F9018958430FF
S113025008F072C0683008F06FC04130A1F58130F9
S113026089F028F08230C9F0833011F108952AB35F
S113027081E090E002C0880F991F6A95E2F7822B13
S11302808ABB089527B381E090E002C0880F991FCC
S11302906A95E2F7822B87BB089524B381E090E04E
S11302A002C0880F991F6A95E2F7822B84BB0895D8
S11302B021B381E090E002C0880F991F6A95E2F7AC
S11302C0822B81BB0895411137C0813091F028F011
S11302D08230D9F0833029F108952AB381E090E087
S11302E002C0880F991F6A95E2F7809582238ABB22
S11302F0089527B381E090E002C0880F991F6A95A2
S1130300E2F78095822387BB089524B381E090E0CF
S113031002C0880F991F6A95E2F78095822384BBF7
S1130320089521B381E090E002C0880F991F6A9577
S1130330E2F78095822381BB0895843008F072C06F
S1130340683008F06FC04130A1F5813089F028F0A1
S11303508230C9F0833011F108952BB381E090E02D
S113036002C0880F991F6A95E2F7822B8BBB089510
S113037028B381E090E002C0880F991F6A95E2F7E4
S1130380822B88BB089525B381E090E002C0880FDA
S1130390991F6A95E2F7822B85BB089522B381E009
S11303A090E002C0880F991F6A95E2F7822B82BB06
S11303B00895411137C0813091F028F08230D9F08E
S11303C0833029F108952BB381E090E002C0880FB7
S11303D0991F6A95E2F7809582238BBB089528B311
S11303E081E090E002C0880F991F6A95E2F780953A
S11303F0822388BB089525B381E090E002C0880F72
S1130400991F6A95E2F78095822385BB089522B3EC
S113041081E090E002C0880F991F6A95E2F7809509
S1130420822382BB0895843078F4813041F028F02F
S1130430823039F0833039F008956ABB089567BB80
S1130440089564BB089561BB0895843078F48130C5
S113045041F028F0823039F0833039F008956BBBD5
S1130460089568BB089565BB089562BB0895CF9352
S1130470C82F41E060E083E00E949D0140E061E01C
S113048083E00E949D0141E062E083E00E949D01BF
S11304908FE19EE40197F1F700C000006C2F82E029
S11304A00E94250240E062E083E00E949D01CF911A
S11304B00895CF93C82F40E060E083E00E949D013F
S11304C040E061E083E00E949D0141E062E083E05E
S11304D00E949D018FE19EE40197F1F700C00000A6
S11304E06C2F82E00E94250240E062E083E00E94DB
S11304F09D018FE19EE40197F1F700C00000CF91C8
S113050008952FE785EB91E0215080409040E1F77A
S113051000C0000088E30E9459028FE99FE0019720
S1130520F1F700C000008CE00E9459028FE99FE0BF
S11305300197F1F700C0000081E00E9459028FE3A7
S11305409FE10197F1F700C0000086E00E94590284
S113055008950F931F93CF938C01C0E003C00E94B2
S11305603702CF5FF801EC0FF11D80818111F7CFC5
S1130570CF911F910F910895CF93DF93CDB7DEB73D
S11305802A970FB6F894DEBF0FBECDBF6FEF82E09F
S11305900E94130260E083E00E94130241E060E0E5
S11305A083E00E94270141E061E083E00E9427018B
S11305B041E062E083E00E94270140E060E080E0E7
S11305C00E94270140E061E080E00E94270140E0B2
S11305D062E080E00E94270140E063E080E00E9446
S11305E0270140E064E080E00E9427010E9481022C
S11305F00E9451000E946A00FE0131968AE0DF01E8
S11306001D928A95E9F7F12C12C08F2D0E946E007D
S11306100F2D10E00E94F800000F111FE1E0F0E040
S1130620EC0FFD1FE00FF11F91838083F394B4E07E
S1130630BF1558F789819A81813022E09207E0F052
S11306402B813C8121303240B8F02D813E81213014
S1130650324090F02F8138852130324068F029856E
S11306603A852130324040F080E80E94590280E609
S113067090E00E94A902C7CF8130A2E09A07E0F07F
S11306802B813C8121153240B8F42D813E81211506
S1130690324090F42F8138852115324068F4298541
S11306A03A852115324040F480E80E94590286E6DA
S11306B090E00E94A902A7CF811522E09207E0F4FE
S11306C02B813C8121303240B8F02D813E812115AF
S11306D0324090F42F8138852115324068F4298501
S11306E03A852130324040F080E80E9459028FE67A
S11306F090E00E94A90287CF8130A2E09A07E0F03F
S11307002B813C8121303240B8F02D813E8121156E
S1130710324090F42F8138852115324068F42985C0
S11307203A852130324040F080E80E94590287E740
S113073090E00E94A90267CF811522E09207E0F4BD
S11307402B813C8121303240B8F02D813E8121152E
S1130750324090F42F8138852115324068F4298580
S11307603A852115324040F480E80E9459028EE710
S113077090E00E94A90247CF8115A2E09A07E0F415
S11307802B813C8121303240B8F02D813E812130D3
S1130790324090F02F8138852115324068F4298544
S11307A03A852115324040F480E80E94590282E8DB
S11307B090E00E94A90227CF813022E09207E0F066
S11307C02B813C8121153240B8F42D813E812115C5
S11307D0324090F42F8138852115324068F4298500
S11307E03A852130324040F080E80E94590288E87E
S11307F090E00E94A90207CF81159240E0F48B811A
S11308009C8181159240B8F48D819E818130924003
S113081090F08F8198858130924068F089859A851F
S11308208130924040F080E80E9459028EE890E0C6
S11308300E94A902E8CE81E00E945902E4CEEE0FA4
S1110840FF1F0590F491E02D0994F894FFCF6A
S113084E48656C6C6F00476F6F64204A6F6200419D
S113085E6D617A696E670049204C6F766520596F19
S113086E750050656163650050686F6E65004927B9
S10B087E6D20476F6F64000058
S9030000FC
